:100000000C94CA020C9402030C9402030C94020395
:100010000C9402030C9402030C9402030C9402034C
:100020000C9402030C9402030C940D2B0C94E12B02
:100030000C945F250C9402030C9402030C940203AD
:100040000C9402030C94141D0C9402030C940203F0
:100050000C94381D0C94E6250C9402030C940203B6
:100060000C9402030C9402030C9402030C940203FC
:100070000C9402030C9402030C9402030C940203EC
:100080000C9402030C9402030C9402030C940203DC
:100090000C9402030C9402030C9402030C940203CC
:1000A0000C9402030C9402030C9402030400160047
:1000B00007001D001B0006002941284200433A00AA
:1000C0003B003C003D003E003F00010001000100FC
:1000D000BF5CBE5CBD5CC25CC95CCA5C0100010067
:1000E0000100C35CC55CC65C005CC75CC85C010009
:1000F00001000100010001000100010001000100F8
:1001000001000100010001000100010001000100E7
:1001100001000100010001000100010001000100D7
:1001200001000100010001000100010001000100C7
:1001300001000100010001000100010001000100B7
:1001400001000100010001000100010001000000A8
:100150000000000000002A2B280000000000000022
:1001600000000000000000000029000000002C1E1C
:100170003420212224342627252E362D3738271ED9
:100180001F202122232425263333362E37381F04FF
:1001900005060708090A0B0C0D0E0F101112131497
:1001A00015161718191A1B1C1D2F3130232D350455
:1001B00005060708090A0B0C0D0E0F101112131477
:1001C00015161718191A1B1C1D2F3130354C00003D
:1001D000000000000000000000000000000000001F
:1001E000000000000000000000000000000000000F
:1001F00000007E0F00D4FFFFFFC70000007800045E
:100200007F3F1F643214643214783C1E1E140A05AA
:100210002223252628292A2C2D2F30323335363813
:100220003A3B3D3E4042434547494A4C4E5051536C
:100230005557595A5C5E6062646668696B6D6F7190
:10024000737577797B7D7F81838587898A8C8E9092
:10025000929496989A9C9E9FA1A3A5A7A8AAACAE9B
:10026000AFB1B3B4B6B8B9BBBCBEBFC1C2C3C5C6DB
:10027000C7C9CACBCCCDCED0D1D2D2D3D4D5D6D784
:10028000D7D8D9D9DADADBDBDBDCDCDCDCDCDDDDC2
:10029000DDDDDCDCDCDCDCDBDBDBDADAD9D9D8D7B2
:1002A000D7D6D5D4D3D2D2D1D0CECDCCCBCAC9C754
:1002B000C6C5C3C2C1BFBEBCBBB9B8B6B4B3B1AF8B
:1002C000AEACAAA8A7A5A3A19F9E9C9A989694922B
:1002D000908E8C8A89878583817F7D7B7977757302
:1002E000716F6D6B6968666462605E5C5A595755E0
:1002F0005351504E4C4A4947454342403E3D3B3A9C
:100300003836353332302F2D2C2A29282625232222
:10031000FFAA7F5540000101010101010101010215
:1003200002020202020202020303030303030303A5
:100330000404040404040405050505050606060670
:1003400006070707070708080808090909090A0A2C
:100350000A0B0B0B0C0C0C0D0D0D0E0E0E0F0F0FD0
:10036000101011111112121313141415151616175B
:1003700017181819191A1A1B1B1C1D1D1E1E1F20C9
:1003800020212222232424252626272829292A2B16
:100390002C2D2D2E2F30313232333435363738393B
:1003A0003A3B3C3D3E3F4041424344454647484935
:1003B0004A4C4D4E4F50515354555658595A5B5D07
:1003C0005E5F616264656668696B6C6D6F707273A5
:1003D0007577787A7B7D7E8082838587888A8C8E0C
:1003E0008F91939596989A9C9EA0A2A3A5A7A9AB3E
:1003F000ADAFB1B3B5B7BABCBEC0C2C4C6C9CBCD30
:10040000CFD1D4D6D8DBDDDFE2E4E7E9EBEEF0F3E1
:10041000F5F8FAFDFF100361006C007400650072CE
:100420000036006B00000014037400680075006162
:10043000006E00630031003700370000000403093C
:100440000409025B00030100A0FA09040000010393
:10045000010100092111010001224000070581036B
:100460000800010904010002030000000921110134
:100470000001222200070582032000010705030373
:1004800020000109040200010300000009211101FC
:1004900000012284000705840320000112010002EC
:1004A00000000008EDFE606001000102000106602E
:1004B000FF0961A1010962150026FF00952075085A
:1004C00081020963150026FF00952075089102C07E
:1004D00005010902A10185020901A100050919010F
:1004E00029081500250195087501810205010930CB
:1004F00009311581257F9502750881060938158116
:10050000257F950175088106050C0A38021581259D
:100510007F950175088106C0C005010906A1018506
:1005200006050719E029E7150025019508750181E1
:10053000020507190029EF1500250195F0750181C5
:1005400002050819012905950575019102950175A6
:10055000039101C005010906A101050719E029E77A
:100560001500250195087501810295017508810125
:100570000507190029FF150026FF0095067508815B
:100580000005081901290595057501910295017568
:10059000039101C011241FBECFEFDAE0DEBFCDBF53
:1005A00004B603FE18C08091790290917A02A0915E
:1005B0007B02B0917C028730904BA740B04B59F43E
:1005C0001092790210927A0210927B0210927C02B1
:1005D000E0E0F8E3099511E0A0E0B1E0ECEFFDE523
:1005E00002C005900D92A436B107D9F722E0A4E627
:1005F000B1E001C01D92A937B207E1F70E943B129A
:100600000C94D32E0C9400000895089581E0089571
:1006100081E008950E940603089508950E940D0345
:100620000895A5E0B0E0E7E1F3E00C943D2E4983A6
:100630005A833091670189819A81311119C06623EB
:1006400099F0222389F00E948109182F682F89814F
:100650009A810E945D0969817A81812F0E944C22D2
:100660002596E3E00C94592E0E946F09182FF3CFC2
:100670000E94810969817A81F1CFFC01262F408196
:1006800051816281738184810E941103089581E008
:100690000895CF93DF93EC0160E00E943D03BE011B
:1006A0000E940E03DF91CF910895E1E0F0E0DF01B9
:1006B00002C0AA0FBB1F6A95E2F7BD01DF0102C0AD
:1006C000AA0FBB1F4A95E2F76A2B01C0EE0F2A95CD
:1006D000EAF7962F9823961302C08E2B0895E09583
:1006E0008E230895242F462F682F80916E010E943B
:1006F00055030E94BD0808950E94031108950E94A9
:100700000611089508950E945A080E9482032FEF4F
:1007100084E39CE0215080409040E1F700C000005D
:1007200008950E9483030E940A2608950E9483036D
:100730000E942E2608950F931F93CF93DF938C0171
:1007400061E00E943D03EC01B8010E94C31E8111CB
:1007500006C080E0DF91CF911F910F910895B801FD
:10076000CE010E940A038823A1F3B801CE010E94A2
:10077000DD1C882371F3B801CE010E9491238823E8
:1007800041F3B801CE010E944120882311F3B80142
:10079000CE010E9403238823E1F2B801CE010E941A
:1007A000221B8823B1F2F8018281882361F0CA35C7
:1007B000FDE5DF0701F158F4C115ECE5DE0791F026
:1007C000CE3DDC4591F0C8010E940803C3CFCC3573
:1007D0008DE5D80769F090F0C73ADD45A1F70E9492
:1007E0009603B7CF0E949103B4CF0E943A0EF7CF81
:1007F0000E94740DE8CF0E947E0DE5CF0E94820D0D
:10080000E2CF0E943C2580E00E946D1D0E94EA0418
:1008100008950E94091C0E94EE040E94412508953B
:10082000B0E0A0E0E6E1F4E00C94392EE82FF0E02F
:10083000E25BFE4FD490282F26952695269530E032
:10084000F901E251FE4F0491877010E0082E02C0BA
:10085000159507950A94E2F701701127F901E25204
:10086000FE4FE490F12C082E02C0F594E7940A9410
:10087000E2F791E0E922FF24F901E253FE4FC4912F
:10088000D0E002C0D595C7958A95E2F7C170DD2703
:100890000115110519F081EE0E943905E114F104EA
:1008A00019F086EE0E9439058D2D0E942106E11473
:1008B000F10419F086EE0E94B0050115110519F03A
:1008C00081EE0E94B005CD2B19F08CE20E9421062A
:1008D000CDB7DEB7E7E00C94552EEF92FF920F9361
:1008E0001F93CF93DF93EC01162F0AE088818823B2
:1008F00009F454C0813009F04EC08981813099F4E7
:100900007E0122E0E20EF11C8A810E942106E701AD
:100910002196812F815050F3EFE9FFE03197F1F7F5
:1009200000C00000F7CF823041F47E0182E0E80E83
:10093000F11C8A810E943905EACF833041F47E019F
:10094000E2E0EE0EF11C8A810E94B005E0CF843017
:1009500011F02196DDCF2A81229690E080E0AE0151
:100960004F5F5F4F2053330B2A30310548F001971A
:1009700078F2EFE9FFE03197F1F700C00000F7CF20
:10098000089FB001099F700D1124C901860F971FA0
:100990002981EA01E4CF0E941004BACFCDB7DEB7B7
:1009A000E6E00C94562E60E00E946D0408950895D0
:1009B0000E94D704089581E008950E94DB04089501
:1009C0000895CF93C82F0E94D8048C2F0E94DD0475
:1009D000CF91089580E00E94E10408950E94ED23E4
:1009E0000E94E10408950E94ED23909166019817FA
:1009F00021F0809366010E94E1040895ABE0B0E02D
:100A0000E4E0F5E00C943E2E4F83588769877A879F
:100A10008B8761110E94BF0C1E821D8285E0FE0142
:100A20003796DE01119601900D928A95E1F78C813F
:100A30009D81892B61F449815A816B817C818D81F3
:100A40009E810E94E80B2B96E2E00C945A2E89813D
:100A50009A8189238F3F79F3CE0101960E94470343
:100A60008111E9CFF0CFFC01808191810E94AE0914
:100A70000895CF93C82F8823C9F08238C9F40E9403
:100A8000ED2381FD13C089E30E94770C0E94E00CE6
:100A90002FEF81EE94E0215080409040E1F700C0BC
:100AA000000089E30E947F0C0E94E00CCF91089522
:100AB0008338A1F40E94ED2380FDF8CF83E50E94E6
:100AC000770C0E94E00C2FEF81EE94E021508040E3
:100AD0009040E1F700C0000083E5E4CF8438A1F442
:100AE0000E94ED2382FDE2CF87E40E94770C0E94F2
:100AF000E00C2FEF81EE94E0215080409040E1F730
:100B000000C0000087E4CECF8CEF8C0F813A90F4C8
:100B10006C2F80910001909101010E946224882332
:100B200029F08C2F0E947F0C0E94E00C8C2F0E94D9
:100B3000770CBACF80E28C0F883048F4C77081E020
:100B400001C0880FCA95EAF70E94A20CADCFC03F42
:100B500008F4ACCF8C2F0E94BF120E949213A6CF34
:100B6000882309F455C0823879F40E94ED2381FF6F
:100B70004FC089E30E94770C0E94E00C89E30E9439
:100B80007F0C0E94E00C0895833859F40E94ED23F5
:100B900080FF3EC083E50E94770C0E94E00C83E555
:100BA000EECF843859F40E94ED2382FF31C087E4F0
:100BB0000E94770C0E94E00C87E4E1CF9CEF980F35
:100BC000913AE8F290E2980F983050F4877091E0F3
:100BD00001C0990F8A95EAF7892F0E94A80CD1CFFE
:100BE0009BE5980F933028F490E080E00E94222447
:100BF000089598E5980F973128F490E080E00E94DE
:100C000038240895803F20F00E9419130E94921307
:100C100008951F93CF93DF93182FEB010E9439059E
:100C2000209739F4812F0E94B005DF91CF911F9159
:100C300008958FE99FE00197F1F700C00000219728
:100C4000EFCF70E060E0893311F460E570E00E945E
:100C500009060895882321F00E94A20C0E94E00C4E
:100C60000895882321F00E94A80C0E94E00C0895AA
:100C7000B0E0A0E0EEE3F6E00C94372E6C01D62F46
:100C8000C72FFC011281F580F2949FE0F9220E94A7
:100C9000980CE82E8823B9F0E12E1123A1F08C2FB7
:100CA000807F803421F080E28D0F8830D0F08091F9
:100CB000430282FF16C082E00E94430D0E94980CFE
:100CC00091E0E82EE926BC2EB2948FE0B822FBE03A
:100CD000FB1508F468C0EB2DF0E0EB52F14D0C94DD
:100CE000F02DE12CF0CF0C2F0F70C07F11F002958A
:100CF000007F112399F0002359F080E28D0F883096
:100D000010F0D11107C0802F0E94A20C0E94E00CAD
:100D10008D2F41C0802F0E94B20CF8CF8D2F0E94E2
:100D2000B005002309F43FC080E28D0F883010F039
:100D3000D11104C0802F0E94A80C03C0802F0E94F4
:100D4000B80C0E94E00C2FC00C2F0F70C07FC03277
:100D500011F00295007FDD2381F0D13009F463C0EA
:100D6000112309F46DC0FF2009F463C0F6018581E9
:100D700080FFCECF8F7085835CC08091430282FD5F
:100D800033C0112359F0002329F0802F0E94A20CB8
:100D90000E94E00C80E00E94390505C080E00E94BE
:100DA000B0050111C7CFEB2DE850FF0B349720F4AD
:100DB0000E94ED230E94E104EE2089F00E94940C31
:100DC00080FD0DC0F60112820E948E0C0E94D10897
:100DD000C6010E9422080E948E0C0E94DD08CDB739
:100DE000DEB7E9E00C94532E112389F0F11006C010
:100DF0000E94C20C802B0E942A06D5CF21E0F2125D
:100E0000F7CF0E94C20C802B0E94C90CCCCFF110EE
:100E100006C00E94D60C802F0E943106C4CF31E05C
:100E2000F31609F2F6CF112331F085E08F1508F49F
:100E3000BACF802FE0CF94E09F1508F4B4CFEBCF6A
:100E4000FF2049F3D93349F4FFEF27EE33E0F150A7
:100E500020403040E1F700C000008D2F0E94B00517
:100E6000A2CF8D2F112329F00E94BF120E9492134E
:100E70009ACF0E941913FACF8C2F837079F5111134
:100E800092CF4D2F429546954770440F440F8D2FBA
:100E90008F70042E01C0880F0A94EAF72D2F20715D
:100EA000D4FF07C02FE030E001C0220F4A95EAF7D7
:100EB0002095C695C695C370822BC23049F058F470
:100EC000C13019F00E94AB086ECF0E94A5086BCF0D
:100ED0000E94B10868CF0E94A20865CF86951123B1
:100EE00011F08C2F8170882309F45DCF4D2F42952E
:100EF00046954770440F440F8D2F8F70042E01C00C
:100F0000880F0A94EAF72D2F2071D4FF07C02FE035
:100F100030E001C0220F4A95EAF72095C695C695A4
:100F2000C370822BC23049F058F4C13019F00E94CE
:100F3000FC0839CF0E94F60836CF0E94020933CF51
:100F40000E94BD0830CFCF70112329F08C2F0E9452
:100F5000D1088D2F50CF8D2F0E9431068C2F0E94EB
:100F6000DD0821CFD23F51F160F4D03FB9F0D13F3D
:100F700081F0112309F449C0F110CACE8C2F8F7172
:100F800021C0D33F11F1D43FA1F78091430282FDEC
:100F900026C08C2F8F71112311F314C0112349F037
:100FA00084E08F1508F4FFCE8C2F8F710E94EA0821
:100FB000FACE95E09F1508F4F6CEF6CF8C2F8F7100
:100FC0001111CDCF0E94D108EECE112329F08C2F24
:100FD0008F710E94C808E7CE0E94C408E4CE112396
:100FE00049F0CF718C2F0E94D10863E08C2F0E94B2
:100FF000250DD9CE81E00E94430DE1E0EF1508F008
:10100000D2CE82E00E94430DCECEF1101BCF8C2FAA
:101010008F71A5CF0F931F93CF93DF93EC0168815E
:1010200079818A810E94B9098C010E9408090E9475
:10103000A108B801CE010E943806DF91CF911F911F
:101040000F910895CF93DF93EC018B819C81892BC5
:1010500029F08881998189238F3F51F4DF91CF91C5
:101060000895CE010E940A08CE010E944903F6CFDE
:10107000CE010E949B038111F4CF0E94980C88231B
:1010800069F38A81882351F38091430282FFE6CF7E
:1010900082E00E94430DE2CF0E94BF0C0E94E00C50
:1010A0000E94A3140E94921308950E94870C0E942C
:1010B0004C0808950E94AF0C0E945508089592951F
:1010C0009F70963091F058F4925F9F70923058F470
:1010D000803F19F030F4883E30F481E008959A5F43
:1010E000F4CF843FD1F380E00895883EB0F3813F90
:1010F000D1F7F3CFFC01808191810E94AE090E945B
:101100005F080895A5E0B0E0E8E8F8E00C943E2E12
:101110002596E2E00C945A2EA6E0B0E0E2E9F8E071
:101120000C943E2E2696E2E00C945A2E08950E94CE
:10113000960808950E94970880936F010E944C08BA
:10114000089508950E949A08089590916F01892B3F
:101150000E949A08089590916F0189230E949A082D
:10116000089590916F0189270E949A0808950E941E
:10117000960808950E94B70808950E94BA088093BF
:101180006E010E944C08089580E00E94BD080895F9
:1011900091E001C0990F8A95EAF7892F0E94BD0856
:1011A000089521E030E001C0220F8A95EAF780918E
:1011B0006E01822B0E94BD08089521E030E001C03D
:1011C000220F8A95EAF7209580916E0182230E9472
:1011D000BD08089521E030E001C0220F8A95EAF7AA
:1011E00080916E0182270E94BD08089590916E0142
:1011F000892B0E94BD08089590916E0189230E9459
:10120000BD08089590916E0189270E94BD08089538
:101210000895262F277091E001C0990F2A95EAF7CB
:1012200023E0769567952A95E1F7FB01EE0FFF1F06
:10123000E60FF71FE40FF51F50E040E0682F70E065
:101240008191DF0111979B01042E02C036952795ED
:101250000A94E2F7217021952827292328272C9327
:101260004F5F5F4F4330510559F70895A82FA7707E
:1012700023E0969587952A95E1F7FC01EE0FFF1F75
:10128000E80FF91FE60FF71F50E040E080E02191E2
:1012900030E00A2E02C0369527950A94E2F72170B5
:1012A0003327042E01C0220F0A94EAF7822B4F5FE6
:1012B0005F4F4330510559F70895262F933070F44E
:1012C000833060F4682F70E083E0989F600D711D9B
:1012D000112448E651E0822F0E9409090895292F20
:1012E000933068F4833058F490E068E671E033E0BE
:1012F000239F800D911D11240E943609089580E0DE
:101300000895CF92DF92FF920F931F93CF93DF93B5
:101310006C0100916E0180916F01082BC7E0D0E055
:1013200010E0FC2EC8010C2E02C0959587950A94FA
:10133000E2F780FD0CC02197A0F7F12C8F2DDF91F3
:10134000CF911F910F91FF90DF90CF900895B6013C
:101350008C2F0E94EA0F019771F3F0CFCF93DF93A8
:10136000EC010E948109BE010E94EA0FDF91CF913A
:1013700008951F93CF93DF93EB0190916701992319
:1013800039F0CB010E94AE09DF91CF911F910895F2
:10139000882369F0CB010E948109182F682FCE01A4
:1013A0000E945D09BE01812F0E94EA0FEDCFCB01A3
:1013B0000E946F09182FF6CF1F93CF93DF93C09130
:1013C000700116E0809171018C1304C0DF91CF9100
:1013D0001F910895D0E01C9FF0011D9FF00D112476
:1013E000EE58FE4F408151816281738184819581E5
:1013F0000E948C082196C770E5CF4091A2015091C0
:10140000A3016091A4017091A5018091A601909122
:10141000A7010E948C0808951F93CF93DF938091BA
:10142000A701807F09F049C08091A401882309F4B5
:1014300044C080917001C09171016091A2017091CE
:10144000A301A091A501B091A601D62FD72316E044
:10145000C81799F190E0109711F0DF3F19F4019649
:101460008770F6CF189F9001199F300D1124F90154
:10147000EE58FE4F41814713F2CF40814613EFCF24
:1014800042814111ECCF438154814A1B5B0B483CA4
:10149000510528F78091A7018F7080618093A70183
:1014A000F901E958FE4F80818F708061808382EA64
:1014B00091E00E9422080E94DC09DF91CF911F91E8
:1014C0000895A1E1B0E0E7E6FAE00C94362E8C0135
:1014D00085E0F801DE011D9601900D928A95E1F7F5
:1014E000F801E28082EAC82E81E0D82E6091A50141
:1014F0007091A6016115710509F44EC19091A20188
:101500002091A301892F82238F3F09F445C1408197
:101510005181A380B480F090A401F501E61BF70B84
:10152000FF2009F4EAC08091A701382F307FE83C02
:10153000F10508F0A3C031116DC0FE2C251316C0B3
:10154000941314C0E11012C08F7080618093A701C2
:101550000E94FD09C6010E9422088091A701F8019E
:1015600085838F2D6196EAE00C94522EA114B1046C
:1015700029F0842F85238F3F09F027C180E0F82FC1
:10158000F170DF2E80FF3CC08091700120917101CD
:1015900036E0821315C04D875E878D859E850E943B
:1015A000AE09292F22952F702230F0F0243018F543
:1015B0009F70F1F0F8019581907FD1F4D12C1EC07D
:1015C00090E0389FF001399FF00D1124EE58FE4F46
:1015D0006181651306C06081641303C06281E612F5
:1015E0000FC001968770D5CF9F7011F0882331F31B
:1015F000805E883018F3C8010E942208FD2CB1CF0C
:10160000EE2009F4AECF8091A70181608093A701FD
:10161000F12CA7CF251306C0941304C0F801EE20C7
:1016200009F487C0C8010E947A08882319F1EE20C6
:1016300009F18091A701803270F02091A2013091D0
:10164000A30138872F831986BB86AA868C87CE0193
:1016500007960E94220886E0F801A2EAB1E0019014
:101660000D928A95E1F70E940C0A0E94FD09FF2461
:10167000F39477CFC8010E942208F9CF311113C02B
:101680007A2DB98AA88A6E2D89890E94820882EAF9
:1016900091E00E94220886E0F60111928A95E9F70E
:1016A0000E94FD09B5CF25130FC094130DC0E110A2
:1016B0000BC0F8018583C8010E94220886E0F6016C
:1016C00011928A95E9F74DCFC8010E947A088823C4
:1016D00089F2EE2079F28091A701803208F4BBCF25
:1016E0002091A2013091A3013A8329831B82BD82FC
:1016F000AC828E83CE010196ACCFE83CF10508F0B8
:101700003EC0FE2CEE2009F4B5CF25132AC0941359
:1017100028C08091A70180FD1BC0982F907FC1F049
:10172000F8018583903F31F0982F907F905F8F7004
:10173000892B8583C8010E94220886E0F801A2EA6D
:10174000B1E001900D928A95E1F70E94FD0909CF61
:1017500086E0F801A2EAB1E001900D928A95E1F7E6
:1017600000CFC8010E947A08811175CF8091A7012E
:1017700081608093A701C8010E942208F2CE7A2DD1
:10178000B98AA88A6E2D89890E94820886E0F601AE
:1017900011928A95E9F7D9CFEE2009F46BCFC801F1
:1017A0000E947A08F82E882309F464CF86E0F801B5
:1017B000A2EAB1E001900D928A95E1F782EA91E008
:1017C0000E9433050E940C0AC0CF81E08E25D7CE3F
:1017D000ACE0B0E0EEEEFBE00C943D2E4F8358877A
:1017E00069877A878B879C87CE0107960E94610A5A
:1017F000882369F08A859B85892B39F04F8158852C
:10180000842F85238F3F09F06BC016E05FC086E010
:10181000FE013796DE01119601900D928A95E1F74F
:101820008A859B85892B89F38F81988589238F3FB2
:1018300061F32091710130E0C90101968770992709
:10184000409170014817190671F40E945A081092CD
:1018500071011092700186E0E2EAF1E0DF011D9271
:101860008A95E9F7D2CF96E0929FD001939FB00D71
:101870001124AE58BE4FFE01319601900D929A95FB
:10188000E1F7809371010E94DC09BFCF819FC00105
:1018900011248E589E4F0E94610A8823E9F0E0913E
:1018A00070011E9FF0011124EE58FE4F40815181BE
:1018B00062817381848195810E948C08809170017E
:1018C00090E0019687709927809370018091700154
:1018D000909171018913DACF2C96E3E00C94592E84
:1018E00069857A858B859C850E948C088ECF682FB0
:1018F00080910001909101010E94E2240895682FD7
:1019000080910001909101010E94F024089580913E
:101910000001909101010E94FE2408958091C80168
:1019200085958595859508958091C801877008955E
:101930009091C801977081E009F480E0089580914A
:10194000EB0108959091EB01892B8093EB010895B1
:1019500080959091EB0198239093EB01089510925C
:10196000EB0108959091EA01892B8093EA01089593
:1019700080959091EA0198239093EA01089510923E
:10198000EA0108958091C901089508950E94C50C47
:1019900008959091430292FF08C09091C901981751
:1019A00021F08093C9010E94C60C08958091C9015D
:1019B000882329F01092C90180E00E94C60C089586
:1019C000CF93DF93E0910001F09101018091EB0151
:1019D0008083E0910001F091010180819091EA0102
:1019E000892B80839091C901992381F0E0910001B6
:1019F000F09101018081892B808380910001909179
:101A000001010E944E2481110E94D60CC091000158
:101A1000D091010140E250E068EA71E0CE010E94FD
:101A20007E2E892B59F080E2FE01A8EAB1E00190F8
:101A30000D928A95E1F7CE010E94FA23DF91CF91B2
:101A4000089508950E94210D08959091430292FFF8
:101A500011C098E0899F90011124622B6093C80106
:101A60000E94D1088091C8018595859585950E9431
:101A7000220D08950E94D10808951092C80180E0B7
:101A80000E94220D08959091C8018095892380932A
:101A9000C801282F277091F4282F082E000C330B33
:101AA0009217130659F09091430292FF07C0859553
:101AB000859585950E94DD080E943D0D08959091C1
:101AC000430292FB222720F9281769F080FB92F944
:101AD0009093430280914202909143020E94B10D83
:101AE00082E00E94430D08958091430282FB882783
:101AF00080F991E089270E945F0D089581E00E949E
:101B00005F0D089580E00E945F0D08956FEF7FEFF5
:101B100090E080E00E94BD2E089590E080E00E9459
:101B2000992E883E9E4F19F40E945E1E089580E013
:101B3000089582E090E00E948B2E089583E090E06B
:101B40000E948B2E0895CF9384E090E00E948B2E0C
:101B5000C82F82E290E00E948B2E982F8C2FCF917D
:101B60000895CF93C92F682F84E090E00E949F2EA4
:101B70006C2F82E290E00E949F2ECF910895AB01DE
:101B8000BC018FE090E00E94B12E0895AB01BC0132
:101B900083E190E00E94B12E089560E070E0CB01F7
:101BA0000E94C60D089560E070E0CB010E94BF0D59
:101BB0000E94CD0D089568EE7EEF90E080E00E94D7
:101BC000BD2E60E082E090E00E949F2E60E083E006
:101BD00090E00E949F2E10926F0160E084E090E000
:101BE0000E949F2E64E082E290E00E949F2E60E0BF
:101BF00085E090E00E949F2E60E086E090E00E94E9
:101C00009F2E6FEF87E090E00E949F2E40E050E013
:101C1000BA0188E090E00E94B12E60E08DE090E093
:101C20000E949F2E40E050E0BA0188E190E00E94BF
:101C3000B12E60E087E190E00E949F2E40E050E0EE
:101C4000BA018CE190E00E94B12E70E060E080E289
:101C500090E00E94BD2E40E050E0BA0188E190E0A3
:101C60000E94B12E80E00E94771E0E94A61E0E9454
:101C7000D30D08950E94DB0D0895682F8EE090E04B
:101C80000E949F2E08950E94CB256093F3017093CC
:101C9000F4018093F5019093F6016093EF01709346
:101CA000F0018093F1019093F20108950895089551
:101CB0000E94570E089508950E945B0E089589ECC6
:101CC00090E10E94E3230E94560E0E94580E089550
:101CD00081E008950E94680E0895089508950E9475
:101CE0006D0E0E946E0E08950E94E8100E94E0049E
:101CF0000E94221E08950E94B6250E94B61E0E94D0
:101D0000A2110E94740E0E94091C0E943D1AE2E476
:101D1000F2E080818068808380914202909143024A
:101D20000E94B10D0E945C0E0895AAE0B0E0EBE9BC
:101D3000FEE00C94352E0E94B811C82E81110E942D
:101D4000430E3CEEA32E31E0B32E10E000E0902EC7
:101D5000802F0E940911E82EF501F1905F01F8161D
:101D600009F440C08091F70181FD0E940F118F2D71
:101D70008E25F82FF170FF2E80FD2DC081FD2DC026
:101D800082FF30C092E0D92E24E0F22E0E946A0E2B
:101D9000882399F0DE829F82EF2081E009F480E0C1
:101DA00088870E94BF258160782F9A8789874E8116
:101DB0005F8168858A850E94FE04F801E451FE4F28
:101DC0008081F826F08281E0C11001C080E02A966F
:101DD000EBE00C94512ED12CD9CFDD24D39482E0AA
:101DE000F82ED4CF0F5F1F4F0330110509F0AFCF8E
:101DF0008FEF89838A831B820E94BF258160782FA1
:101E00009D838C8349815A816B818D810E94FE0460
:101E1000DACF0E94950E0E94791A0E94211E0E941C
:101E2000AE130E94F3040895CF93DF930E94EF0F47
:101E3000EC01811522E5920778F5811531E59307CC
:101E400008F098C08F3F910509F0B8F4803F9105E4
:101E500008F06FC0853A910540F48430910548F44C
:101E6000019739F0D0E0C0E004C0805E9109089786
:101E7000C8F7CE01DF91CF910895811540E5940711
:101E800008F05CC0C11580E4D80708F054C0C11543
:101E900090E2D90770F3E6CF811526E5920718F591
:101EA000811535E5930708F07DC0811544E5940759
:101EB00008F073C0982F969596959E01237033274E
:101EC000C115D34508F45BC0C1E0D0E002C0CC0F1F
:101ED000DD1F2A95E2F730E2939FC0011124C82B41
:101EE000D92BDA68C6CFC1159AE5D90778F4C115A0
:101EF00029E5D20708F060C0C11538E5D30708F41A
:101F0000B1CFDC2FCC27C06FD06AB3CFCE019056B3
:101F10008115904208F0A6CF8D2F8F710E948610F8
:101F200090E0982F882788279F719C012C2BE9012E
:101F300041C0D0659ECFDF70D06A9BCFE4E096951C
:101F40008795EA95E1F783702C2F269526952370C7
:101F500090E2299F90011124382B8C2F8370C1E0CF
:101F6000D0E002C0CC0FDD1F8A95E2F7C22BD32B45
:101F7000DC687FCFD82FCC27C16FD06A7ACFC1E081
:101F8000D0E002C0CC0FDD1F2A95E2F720E2929F3D
:101F9000C0011124C82BD92BEBCFD82FCC27C46F6D
:101FA000D06A67CF0E948610C82FD0E0DC2FCC27E4
:101FB000CC27DF71D0625DCF8C2F8F700E9486108E
:101FC00034E0D695C7953A95E1F7CF709C2FEC0198
:101FD000D0694FCF0E944C220E94140F089582387E
:101FE0009105B1F1B0F48133910509F475C048F45D
:101FF0008932910509F469C08A32910509F473C0E8
:1020000008958533910509F459C08933910501F18B
:102010000895833E9105A9F138F4803E9105F9F0C9
:10202000823E910549F10895863E9105A9F1873ECA
:102030009105C9F1843E910519F52091430221FFD4
:102040001FC08091420284FD14C087EE90E0089585
:10205000209142022370A1F080EE90E0089520913B
:10206000420220FD47C03091430230FF09C024FFE7
:1020700044C090E080E004C02091420222FDF7CFEE
:1020800008952091420222FD3BC03091430230FD71
:10209000E3CF24FFF5CFEDCF2091420223FFF0CF15
:1020A00024FDE7CFD2CF2091420223FD2CC03091F6
:1020B000430231FFEECF84EE90E00895209142027A
:1020C00025FFDECF89E290E008952091420225FFAE
:1020D000D7CF85E390E008952091420226FFD0CF2C
:1020E0008AE290E008952091420226FFC9CF81E361
:1020F00090E0089589E390E0089583EE90E00895DC
:1021000082EE90E0089586EE90E00895909142026C
:1021100092FF06C0282F28712830F9F4877F846049
:1021200093FF06C0282F28712831F1F4877E84613F
:102130002091430220FF06C0382F38713830D9F47F
:10214000877F816021FF06C0282F28712831D1F4B4
:10215000877E816194FD877E0895282F2471243025
:10216000F9F68B7F8860DCCF282F2471243101F7AA
:102170008B7E8861DDCF382F3171313019F78E7F3A
:102180008860E0CF282F2171213121F78E7E886170
:10219000E1CF80E008950E94860D08950E94B81155
:1021A0002FEF86E791E0215080409040E1F700C09A
:1021B00000000E94B81180E00E94091180FF04C055
:1021C0000E94CB100E940A2608950E94CE10089506
:1021D0000E948D0D811102C00E943A0E0E94990D3D
:1021E0008093F7010E94A30D9093430280934202D3
:1021F0000E94E5100E949E0D0E94A20880916E012F
:102200000E94BA0808950E94040308950E940503DD
:102210000895E82FF0E0E95BFD4F8081089508956F
:1022200080EA8A95F1F7089500C008950E94101180
:102230000895F894E82FE295EF70F0E031A1282F8F
:102240002F7081E090E001C0880F2A95EAF7982F5F
:102250009095932391A392A1892B82A378940895BA
:1022600085E90E94191186E90E94191187E90E94E7
:10227000191181E90E94191182E90E94191183E95B
:102280000E9419110895B0E0A0E0E9E4F1E10C9496
:10229000382EEC01D62E062F10E0C801835D9E4F2C
:1022A0007C01FC0180818F3F09F445C0F894E82F40
:1022B000E295EF70F0E091A18F7021E030E001C075
:1022C000220F8A95EAF7892F822B81A382A120957C
:1022D000282322A378940E941411EAE2F1E04DE24F
:1022E00051E031E0C12C21912F3F51F1A22FA29555
:1022F000AF70B0E090968C9190E02F7002C09595F1
:1023000087952A95E2F780FD1BC0832FC82A330FDB
:102310004E175F0741F7F70180818F3F11F00E9450
:10232000191161E0C11001C060E08D2D0E941611ED
:10233000C00FD11FC882CDB7DEB7E8E00C94542E91
:1023400080E0E4CF0E94301183E0E7E4F2E0DF01B7
:10235000982F1D929A95E9F7E4E4F2E0DF011D92CF
:102360008A95E9F783E00E94F7110E947C030895A3
:10237000A3E0B0E0EEEBF1E10C943D2E19821A825D
:102380001B8260E0CE0101960E94431161E0CE0104
:1023900001960E94431162E0CE0101960E94431112
:1023A00043E050E0BE016F5F7F4F84E492E00E9403
:1023B0007E2E11E0009709F410E0892B49F0898105
:1023C0009A81AB818093440290934502A093460288
:1023D000212F43E067E472E084E492E00E94F81168
:1023E0000E947F03812F2396E3E00C94592E0895D9
:1023F000FF920F931F93CF93DF93F82E092F162F81
:10240000D72FC42F222349F081E08093FA010E9444
:10241000BF259093F9018093F8018091FA018823F8
:10242000A1F08091F8019091F9010E94D7250597BC
:1024300060F0EF2DF02FA12FBD2FCE0FDF2FD11D7C
:10244000EC17FD0739F41092FA01CDB7DEB7E5E0DD
:102450000C94572E81918D93F3CF0E94E7270E9411
:102460007B0E0E94F42708950E94F9270E94090F0D
:102470000E94132808950E9458250E94CD270E948B
:102480005F0E0E942D120E9434120E946F0EFBCF2D
:102490008091010280FF0DC06091070170E0660F1E
:1024A000771F6038710570F56115710569F1862F28
:1024B000089581FF07C06091070184E0689FB00123
:1024C0001124EFCF6091070182FD0AC080910002C4
:1024D0008823A9F02091060160910701821710F06E
:1024E00088E0ECCF869FC001112433E0880F991F4C
:1024F0003A95E1F7622F70E00E94BA2DD2CF68E0E2
:1025000070E0D5CF8FE7089581E0089580910102B2
:1025100080FF0CC06091030170E07595679575951B
:1025200067956115710549F1862F089581FF06C0F1
:102530006091030170E075956795F3CF6091030199
:1025400082FD0BC09091FF019923A1F060910201DF
:1025500080910301961738F0682F70E0603871059C
:1025600000F38FE70895899FC001112470E00E9455
:10257000BA2DF4CF61E070E0D7CF81E00895803FBD
:1025800031F40E9448128195809305020895813F9D
:1025900019F40E944812F8CF823F31F40E94481289
:1025A0008195809304020895833F19F40E94481294
:1025B000F8CF893F29F40E9486128093060208957D
:1025C0008A3F21F40E9486128195F7CF8B3F31F428
:1025D0000E94861281958093070208958C3F19F41A
:1025E0000E948612F8CF9CE0980F953070F4845FBB
:1025F000990B21E030E001C0220F8A95EAF7809123
:102600000302822B8093030208958D3F31F4809161
:10261000010281608093010208958E3F21F4809130
:1026200001028260F7CF8F3FB9F780910102846089
:10263000F1CF40910402803F59F48091050287FF59
:102640000DC01092050241110BC01092000208C08B
:10265000813F81F48091050218169CF3442381F098
:102660008091060290910702892B09F05AC01092BE
:10267000FF010895823F49F447FFF0CF1092040212
:10268000809105028111ECCFE0CF833F19F414163D
:10269000ACF3E4CF90910602893F29F41916F4F6C1
:1026A00010920602DBCF8A3F19F497FFD7CFF8CFFD
:1026B000909107028B3F29F497FFD0CF1092070229
:1026C000CDCF8C3F19F41916CCF3C8CF9CE0980FEE
:1026D000953090F4845F990B21E030E0B90102C09D
:1026E000660F771F8A95E2F7CB01809590910302E0
:1026F000892380930302B2CF8D3F31F48091010290
:102700008E7F80930102AACF8E3F21F48091010237
:102710008D7FF7CF8F3F09F0A1CF809101028B7F92
:10272000F0CF08950E94BF259C01909104028091F2
:102730000502982B21F03093FE012093FD0190912A
:10274000060280910702982B21F03093FC01209320
:10275000FB0182E092E00E9414240895A6E0B0E01C
:10276000E4EBF3E10C943D2E86E0E2E0F2E0DE01E2
:10277000119601900D928A95E1F710920402109241
:10278000050210920602109207028B819C81892B10
:1027900081F08091FD019091FE010E94D725AC014E
:1027A00090910002992391F18091080184171506F8
:1027B000D0F18D819E81892B91F08091FB019091C8
:1027C000FC010E94D725AC019091FF01992309F4E7
:1027D0006BC0809104018417150608F473C0BE0114
:1027E0006F5F7F4F82E092E00E94102581110E946E
:1027F000921386E0FE013196A2E0B2E001900D92C4
:102800008A95E1F72696E3E00C94592E2091090170
:102810008AE0289F900111242417350750F69F5F06
:102820009093000202C09F3FD1F71B81112359F002
:102830000E9448129FEF11160CF491E0899F802DA1
:102840001124809304021C81112359F00E94481224
:102850009FEF11160CF491E0899F802D1124809335
:10286000050230910402332309F4A3CF209105021D
:10287000222309F49ECF45EB3403C0011124992390
:1028800059F09093040245EB240390011124332363
:1028900039F0309305028DCF81E080930402F3CFAD
:1028A00081E08093050285CF209105018AE0289F71
:1028B000900111242417350708F091CF9F5F909362
:1028C000FF0102C09F3FD1F71D81112359F00E94E3
:1028D00086129FEF11160CF491E0899F802D112430
:1028E000809306021E81112359F00E9486129FEFE9
:1028F00011160CF491E0899F802D1124809307021A
:1029000030910602332309F46ACF20910702222373
:1029100009F465CF45EB3403C0011124992359F024
:102920009093060245EB240390011124332339F0E0
:102930003093070254CF81E080930602F3CF81E009
:10294000809307024CCF86E0E2E0F2E0DF011D92C7
:102950008A95E9F7109200021092FF01109201028D
:102960000895EF92FF920F931F93CF93DF93EB01A4
:10297000E82FD1110EC0442321F0F0E0EB5EFC4FB4
:10298000E4916E2F7E2F8E2FCDB7DEB7E6E00C944C
:10299000562E0D2F10E0282F30E0442329F02B5E17
:1029A0003C4FF901249130E0F6E0CF9FC0011124A3
:1029B000EFEFF0E0BF010E94A62DAB018C2F90E05D
:1029C000880F991FA5E5A49FB001A59F700D112444
:1029D000861B970B982F990F980FBF01601B710BE7
:1029E000629FD001639FB00D729FB00D11248B2F99
:1029F0009D9FB0011124672F7727EF01C61BD70BCE
:102A0000BE01629FE001639FD00D729FD00D112423
:102A10007F01E91AF108E09EB001E19E700DF09E81
:102A2000700D1124672F7727E61BF70BE29F8001BB
:102A3000E39F100DF29F100D1124E12F722F4230F1
:102A4000510599F048F44115510569F0413051059F
:102A500081F0EB2F8D2F07C04430510569F080F0D5
:102A600046305105B1F76E2F8FCFE22F7B2F812F8C
:102A7000FACFE22F7D2FF7CFEB2F822F712FF3CFDD
:102A80007B2F822FED2FEFCF41E00E94B1140895EC
:102A9000FC01828120813181982F281708F4922F20
:102AA000391708F4932F9383391B3183291B208313
:102AB000891B8283089508950E9444150895CF9339
:102AC000DF93762FE901682F842F0E945C157983AC
:102AD00068838A831B82DF91CF91089580914A0297
:102AE000982F9E7F29F48170826080934A02089516
:102AF0008A34E8F381708864F8CF88E090E00E941F
:102B0000932E0895CF92DF92EF92FF926B017C019A
:102B10000E946E15B701A60188E090E00E94B12ED8
:102B2000FF90EF90DF90CF90089560914A027091EE
:102B30004B0280914C0290914D020E9482150895A3
:102B4000EAE4F2E08DE0808311828FEF8283838359
:102B5000148260817181828193810E94821508951F
:102B600080914A0280FF02C08695089580E0089512
:102B700090914E02933018F49F5F90934E028823F9
:102B800051F060914A0270914B0280914C029091F9
:102B90004D020E948215089581E00E94B8150895A3
:102BA00090914E02992319F0915090934E028823F0
:102BB00051F060914A0270914B0280914C029091C9
:102BC0004D020E948215089581E00E94D01508955B
:102BD00080914E02089580934E02662351F06091D9
:102BE0004A0270914B0280914C0290914D020E94DA
:102BF0008215089560E00E94EB15089580914B02C4
:102C0000089580914C02089580914D02089570E0DE
:102C10000E94331E0895EF92FF920F931F93CF935C
:102C2000DF9300910E0180914A0280FF15C0C09190
:102C30000D0124E0C29FE0011124C15BDD4F7E0144
:102C400010E010131CC0612FCE010E940716CDB7F3
:102C5000DEB7E6E00C94562E80910F0190911001A2
:102C600024E0829FF0011124E15BFD4F8917F8F603
:102C700011821082128213828F5F3496F7CFC701C0
:102C80000E9448151F5F84E0E80EF11CDACF909196
:102C90004A0290FF0EC090910F012091100134E084
:102CA000939FF0011124E15BFD4F921718F00E94F1
:102CB0000B16089581836083428313829F5F34964D
:102CC000F4CFA4E0B0E0E7E6F6E10C943E2E90915C
:102CD0004A0290FF0AC09E012F5F3F4F0E945F157E
:102CE0004B8169818A810E9447162496E2E00C9408
:102CF0005A2ECF93DF93EC01EC81F0E0E05FFD4FC3
:102D00004491EAE4F2E0628181810E9461168C8143
:102D10008F5F8C83DF91CF910895CF93DF93EC0188
:102D2000EAE4F2E0438162818C810E9461168C8129
:102D30008F5F8C83DF91CF910895A4E0B0E0E3EA48
:102D4000F6E10C943C2E8C018091080281110AC09E
:102D50009E012F5F3F4F4FEF6FEF0E945F158A81FB
:102D600080930802F8016481613069F08091080263
:102D700040E0662361F040E0623011F440910802C7
:102D800080E060E004C06091080240E080E00E94C2
:102D90004716F801848190E0019663E070E00E949C
:102DA000BA2D84832496E4E00C94582EA4E0B0E07D
:102DB000ECEDF6E10C94372E082FE62EF42ED22EF1
:102DC00090914A0290FF29C0E92FE695AE2FB0E01E
:102DD000A05DBE4F8C91809312029E7F923009F5C8
:102DE0009E012F5F3F4F802F0E945F154B816981AD
:102DF0008A810E94471600934B02E0924C02F092A7
:102E00004D02DD2051F060914A0270914B02809199
:102E10004C0290914D020E9482152496E9E00C9498
:102E2000532E823019F4F0904D02E5CF863019F41C
:102E300000914B02E0CF8930D9F38931E1F6E951B5
:102E40008E2F8170C82EE695F0E0E05FFC4F149164
:102E5000B12C60911101B61618F00E940B16CBCF61
:102E6000B19EC001112470E00E94A62D802FC110D8
:102E700012C0860F20910F012B0D3327331F220F15
:102E8000331F220F331F215B3D4F4F2D6E2D0E94AC
:102E90005F15B394DECF861BEDCFEAE4F2E09181BB
:102EA000282F438162818CE0890F0E94D6160895F5
:102EB00081E00E944D170895EAE4F2E09181282F05
:102EC0004381628184EF890F0E94D616089581E0C4
:102ED0000E945C170895EAE4F2E0628129E1620F42
:102EE00008F46FEF282F438181810E94D616089540
:102EF00081E00E946B170895EAE4F2E0628129E123
:102F0000621B08F460E0282F438181810E94D6165D
:102F1000089581E00E947C170895EAE4F2E043817D
:102F200028E0420F08F44FEF282F628181810E9430
:102F3000D616089581E00E948D170895EAE4F2E024
:102F4000438128E0421B08F440E0282F6281818100
:102F50000E94D616089581E00E949E17089520E0F1
:102F60000E94D6160895FF920F931F93CF93DF937D
:102F7000EC01F12C0FEF10E060911101F61668F0F2
:102F80000E940B169A818C8190FF23C08F5F8C83E7
:102F9000CDB7DEB7E5E00C94572E20910F012F0D31
:102FA0003327331F220F331F220F331F215B3D4F67
:102FB00070E0C8010E94BA2D962F8C8140914D027D
:102FC00060914C02F99E800D11240E945F15F394CC
:102FD000D3CF8150DCCFB0E0A0E0E1EFF7E10C947B
:102FE000362EFC018281EE24EA9480FD02C0EE249C
:102FF000E394F12C36E0B32E80911101F81698F08D
:103000000E940B1680910A0291E0E9124FC08111D3
:1030100002C080911101815080930A02CDB7DEB7C2
:10302000EAE00C94522EC0910F010F2D10E0C00F5A
:10303000D12FD11DCC0FDD1FCC0FDD1FC15BDD4FAC
:10304000198218821A821B8224E0C22ED12CA12C54
:1030500080910A028A0D87301CF16B2D0E94982DF9
:10306000892F082E000C990B0817190791F48091ED
:103070004D028C9DA0018D9D500D112455954795B5
:10308000559547959E0160914C0280914B020E949C
:103090005F15AE0CF1E0CF1AD108D1F6F394ACCFA6
:1030A00087FFDFCF90911101890FDBCF90E0019670
:1030B0006091110170E00E94BA2DAECF0F931F9363
:1030C000CF9380910F019091100124E0829FF00135
:1030D0001124E15BFD4F891730F1C0E060911101CF
:1030E000C61740F10E940B1620910B018091090236
:1030F000820F8093090290910C01920F90930C0122
:10310000191654F4082E000C990B409111014150EE
:10311000550B841795071CF0219520930B01CF9137
:103120001F910F91089511821082128213828F5F76
:103130003496D1CF0C2F10E070E0C8010E94BA2D58
:10314000E0910F01E80F80910902082E000C990B05
:1031500024E0E29FF001112408171907ACF08091D8
:103160000C01082E000C990B801791076CF09F0141
:10317000215B3D4F40914D0260914C0280914B028A
:103180000E945F15CF5FAACFE15BFD4F11821082D5
:1031900012821382F7CFB0E0A0E0E1EDF8E10C94E9
:1031A000342EEC014C81042F10E09801D8010E94CC
:1031B000052E9B01AC010E941B2E4B015C01E0E23D
:1031C000F0E0E01BF10BA5E5B0E0AC019B010E9433
:1031D0001B2E6B017C019F01DF010E94FD2D9B01D5
:1031E000AC010E94262E9B01AC01280D391D4A1D01
:1031F0005B1DC701B6010E94CE2D022F822F90E0E9
:103200002A3220F543E0249F90011124359527951B
:10321000122F1095F12C85E5E82EE01A809111010E
:10322000F81620F10E940B169C8181E0992319F079
:10323000903219F48FEF80930A0180910A01890F6F
:103240008C83CDB7DEB7ECE00C94502E25E530E052
:10325000A901481B590BCA019A01220F331F280FDD
:10326000391F37FFD3CF2F5F3F4FD0CF8E2DF1FCCB
:10327000802F20910F012F0D3327331F220F331F73
:10328000220F331F215B3D4F412F60914C020E9462
:103290005F15F394C3CF0F931F93CF93DF93EC018C
:1032A00010E000E0909111019017110609F06CF404
:1032B0000E940B168C8190E00196817099278C8377
:1032C000DF91CF911F910F91089520910F01200F51
:1032D000312F311D220F331F220F331F215B3D4F32
:1032E0004C8160914C0280914B029695901711068B
:1032F00051F04CF0442349F040914D020E945F157B
:103300000F5F1F4FCFCF4423B9F340E0F7CFEAE47C
:10331000F2E080818E7F80836081718182819381E0
:103320000E948215109213022FEF80E792E0215045
:1033300080409040E1F700C000000E940B16089505
:10334000EAE4F2E080818E7F8083109213022FEFF7
:1033500080E792E0215080409040E1F700C00000FB
:103360000E940B16089560914A02669570E04BE04A
:1033700050E082E191E00E94712E892B19F481E0E6
:10338000809313020E94BF2590930C0280930B023E
:10339000089590914A0290FF2BC09170811129C02D
:1033A000926090934A02662351F060914A027091B4
:1033B0004B0280914C0290914D020E9482156091C7
:1033C0004A02669570E04BE050E082E191E00E9495
:1033D000712E892BA9F01092130281E080930E02C6
:1033E00040914D0260914C0280914B020E94AF17B8
:1033F0000895853210F09864D4CF880F982BD1CFE0
:103400000E94B319EACF682F90914A02969581E005
:10341000890F853208F081E00E94C919089581E082
:103420000E94031A0895682F90914A0296958FEF93
:10343000890F09F484E20E94C919089581E00E946D
:10344000131A089561E00E94C9190895EAE4F2E0B0
:1034500080818160808386950E94221A08958091E0
:103460004A0280FF03C00E94871908950E94261A0D
:10347000089560E00E94C919089580911102811198
:103480002EC00E948D0D811104C00E943A0E0E9430
:10349000A0150E947D1560934A0270934B028093A1
:1034A0004C0290934D026E7F61F40E94A0150E9421
:1034B0007D1560934A0270934B0280934C02909367
:1034C0004D020E946E151092130280914A0280FFF5
:1034D00003C086950E94391A81E0809311020895F5
:1034E000EAE4F2E080818160808386950E94391A47
:1034F00008950F931F93CF93DF9380911302882336
:10350000B9F180911202E0914A02E695E81BE0933E
:103510000D02823091F5F0E0E45FFD4FE491CE2F93
:10352000D0E009E716E180910E02882361F0109245
:103530000E020E94BF2590930C0280930B02109202
:10354000100210920F020E94BF25E0910B02F09131
:103550000C028E1B9F0B8F3F9F4750F4EC0FFD1FFB
:10356000F0930C02E0930B028BE092E0F8010995D6
:10357000DF91CF911F910F910895863049F4F0E0CB
:10358000E75FFD4FE491CE2FD0E00DE816E1CBCF01
:10359000893051F4E695F0E0EA5FFD4FE491CE2FDB
:1035A000D0E003EB17E1BFCF8F3051F4E695F0E0A8
:1035B000ED5FFD4FE491CE2FD0E00BEE17E1B3CFDE
:1035C000853149F4F0E0E050FE4FE491CE2FD0E099
:1035D0000EE518E1A8CFC8E2D0E00BEC18E1883185
:1035E00009F4A1CF833239F4EEEFF1E0C591D49123
:1035F0000DE916E198CFC4EFD1E00BE419E1843274
:1036000009F491CFC0EDD7E00BE515E18CCFFA01BD
:10361000811101C0FB0109950895CF93DF93C82F55
:10362000D62F0E94B0158C1748F00E94B0158D1748
:1036300028F40E940F1ADF91CF9108958C2F0E94D9
:10364000221AF9CF1F93CF93DF93EC01FB01128174
:1036500011117EC00E949F0C8272CC3CFCE5DF07FA
:1036600009F49CC008F041C0C63CECE5DE0709F453
:1036700081C0D8F4C33C9CE5D90709F471C030F48B
:10368000C23CDC4509F469C011E062C0C43C9CE561
:10369000D90709F46AC047E657E168E577E1C53C18
:1036A000DC4591F70E94071B53C0C93CFCE5DF07CE
:1036B00009F46AC068F4C73CECE5DE0709F45FC0B2
:1036C00048E757E169E877E1C83CDC4559F3DCCFCE
:1036D000CA3C9CE5D90709F45CC044EE55E16CECAA
:1036E00075E1CB3CDC45F1F2CFCFC13DFCE5DF0716
:1036F00009F465C098F4CE3C9CE5D90709F457C09D
:1037000008F451C0CF3CFCE5DF0709F455C0C03DCB
:10371000DC4509F0B9CF6EE089E04BC0C43D9CE5C3
:10372000D90709F452C058F4C23DFCE5DF0709F49B
:1037300049C0C33DDC4509F0A7CF88E135C0C53D90
:103740009CE5D90709F444C0CD35DD4509F09CCF8F
:10375000812FDF91CF911F9108950E942F1AF8CFEA
:103760004EE15AE16FE07AE19DCF4FE05AE16EE120
:103770007AE198CF48E557E167E677E193CF49E8EA
:1037800057E168E777E18ECF4BEA57E16AE977E1E5
:1037900089CF4AE957E16BEA77E184CF4CEC55E1F8
:1037A00064EE75E17FCF81E00E94221AD1CF65E0FF
:1037B00082E00E940D1BCCCF68E086E0FACF64E186
:1037C0008FE0F7CF67E185E1F4CF62E289E1F1CFE5
:1037D00083E2EACF86E090E00E948B2E0895682F66
:1037E00086E090E00E949F2E0895809167020E94DB
:1037F000EF1B0895E7E6F2E08081847081648083A6
:103800000E94EF1B089580916702869586958695A4
:1038100008950E948D0D811104C00E943A0E0E94ED
:10382000FA1B0E94EA1B80936702883420F087709D
:1038300080648093670290916702892F817090FF66
:1038400004C0892F8695869586950E946D1D0895E2
:1038500080916702982F969596959695983040F4AA
:103860009F5F990F990F990F8770892B809367023B
:10387000809167028160809367020E94EF1B8091B4
:1038800067028695869586950E946D1D08958091A4
:103890006702982F987F79F0885080936702887F1D
:1038A00091E009F490E08091670290FB80F98093A9
:1038B00067020E94EF1B8091670286958695869528
:1038C0000E946D1D08958091670280FD13C0816084
:1038D00080936702813019F489E0809367028091B8
:1038E00067020E94EF1B80916702869586958695F8
:1038F0000E946D1D08958091670280FF08C08E7F31
:10390000809367020E94EF1B80E00E946D1D089566
:103910008091670280FF03C00E947B1C08950E9473
:10392000631C089590916702892F869586958695E8
:103930008F5F8F7197708930E0F4880F880F880F40
:10394000892B8093670280916702887F91E009F458
:1039500090E08091670290FB80F9809367020E945B
:10396000EF1B809167028695869586950E946D1D56
:10397000089590936702E7CF893008F088E090912E
:1039800067029770282F220F220F220F922B9093FD
:103990006702987F21E009F420E09091670220FB04
:1039A00090F9909367020E946D1D08950E94BC1CBF
:1039B000809167020E94EF1B08959C01FB018281A8
:1039C000882349F12D3BFCE53F07C9F040F42B3B30
:1039D000ECE53E0769F02C3B3C4579F008952F3B20
:1039E0009CE5390791F070F0203C3C4589F0089542
:1039F00088E00E94D61C80E0089580E0FACF0E9403
:103A0000471CF9CF0E94281CF6CF0E94881CF3CFD8
:103A10000E94921CF0CF81E00895249A2C9808957A
:103A20002C9A08952C9808951F920F920FB60F921A
:103A300011242F933F934F935F936F937F938F93B3
:103A40009F93AF93BF93EF93FF930E94121DFF913B
:103A5000EF91BF91AF919F918F917F916F915F9106
:103A60004F913F912F910F900FBE0F901F9018957F
:103A70001F920F920FB60F9211242F933F934F93E3
:103A80005F936F937F938F939F93AF93BF93EF93C6
:103A9000FF93209188003091890080918600909159
:103AA00087006AEF70E00E94A62D6B5F7F4F621760
:103AB000730710F40E94101DFF91EF91BF91AF9119
:103AC0009F918F917F916F915F914F913F912F9136
:103AD0000F900FBE0F901F901895B0E0A0E0E3E7A5
:103AE000FDE10C94342EC82F8930F0F581113DC0D2
:103AF0008091880090918900892B51F080916F000E
:103B00008D7F80936F0080916F008E7F80936F0018
:103B10000E94121DA0918600B09187002C2F30E0EA
:103B20000E94052E8B019C0143E036952795179541
:103B300007954A95D1F780918600909187006CE0B7
:103B400070E00E94A62D6017710700F1C80169E0BE
:103B500070E00E94A62D7093890060938800CDB715
:103B6000DEB7ECE00C94502EC8E080918800909174
:103B70008900892B79F680916F00826080936F00B5
:103B800080916F00816080936F00C4CF8091860028
:103B900090918700E0908600F0908700C0908600AA
:103BA000D0908700C6E0D0E0BE010E94A62D060F8F
:103BB000171F211D311D4801590185E0880C991CF2
:103BC000AA1CBB1C8A95D1F7C701BE010E94A62D75
:103BD000F12CE12CA7019601260F371F411D511D25
:103BE000C501B4010E94CE2D69017A01E0918600E1
:103BF000F0918700CA01B9010E94882D9B01AC0198
:103C0000DF010E941B2E9B01AC01C701B6010E947F
:103C1000882D2FE096958795779567952A95D1F70A
:103C2000009186001091870030E020E0061717070A
:103C30002807390708F08FCF6091860070918700C0
:103C40008ACF08950E940D1D82E08093800089E153
:103C5000809381008FEF9FEF909387008093860081
:103C60000E94091C0895509A2BB12E7F3BB1316000
:103C70004FB7F894660F771F660F771F680F791F8D
:103C80006817790741F44FBF8FE594E00197F1F78A
:103C900000C000000895FC015191CF01E8E03BB95C
:103CA000000000C057FF2BB9550F000000C000C036
:103CB00000C02BB900C0EA9591F7E2CF83E290E013
:103CC0000E948B2E823289F484E290E00E948B2E37
:103CD000863059F485E290E00E948B2E91E0883185
:103CE00009F090E0892F8170089580E0FCCFCF9398
:103CF000C82F6FEF811162E283E290E00E949F2E55
:103D00006FEFC11166E084E290E00E949F2E6FEF9A
:103D1000C11168E185E290E00E949F2ECF91089545
:103D2000089586E290E00E948B2E682F70E090E06C
:103D300080E008950895CF93C62F0E949A1E6C2F9D
:103D400086E290E00E949F2ECF91089580E00E942D
:103D5000771E60E070E0CB010E949B1E0E94CE2186
:103D60000E94A92281E00E94771E08950E94901E61
:103D70000E94911E0E949A1E0E945E1E811102C026
:103D80000E94A61E0895CF93FB01C281CC2309F1A6
:103D90009C0122513F452031310520F582510E947E
:103DA000B922C0E08C2FCF91089581E00E94D10804
:103DB00043E062E081E00E947203F3CF81E00E9461
:103DC000DD0843E062E081E00E947203EBCF82E015
:103DD000F6CF8031FFE59F0789F381319F45B9F325
:103DE000C1E0E0CF8031EFE59E07F9F281319F45D8
:103DF000C9F682E0DBCF2FEFFC0120830895CF933B
:103E0000DF93EC018881893029F08A3081F0DF91DD
:103E1000CF9108950E94031C2FEF829FC0011124AF
:103E200023E0969587952A95E1F78983F0CF19824B
:103E3000EECFFC012081293061F48181F8E08F9F71
:103E4000C00111246FEF70E00E94A62D862F0E9402
:103E5000BC1C0895CF93DF93EC0188818138A9F0D1
:103E600028F4803871F0DF91CF910895823881F085
:103E70008338C9F70E94FE1589830E9401168A8340
:103E8000F2CF0E9404168983EECF0E94B015FBCFBB
:103E90000E94E815F8CFCF93DF93EC018881813839
:103EA000D9F028F4803869F0DF91CF9108958238F5
:103EB000F9F08338C9F70E940416482F6A81898176
:103EC00008C0D9810E940116C82F0E94FE154D2FEF
:103ED0006C2F0E94AF17E8CF89810E94391A89811F
:103EE000811103C00E94A019DFCF0E94701ADCCF9D
:103EF00089810E94FA15D8CFFF920F931F93CF9319
:103F0000DF93EC01F62EDC01ED918D01E150E33100
:103F100008F0B4C0F0E0EF51F14D0C94F02D19828F
:103F200089E08A836F2DCE010E94A026CDB7DEB72F
:103F3000E5E00C94572E8981823069F0833071F06E
:103F40008130C9F40E94CB250E94F62D6A837B83C1
:103F50008C839D83E7CF0E94911EF6CF80E00E9464
:103F600009118A8381E00E9409118B8382E00E94FB
:103F700009118C83D7CF6F2DCE010E94FB1ED2CFAB
:103F800089818230C1F76A817B818C819D810E9409
:103F9000F62D0E949B1EC6CF4B816A8189810E94AB
:103FA00090219827892798279D838C83BBCF2C81CC
:103FB0003D813227232732274B816A8189810E94E4
:103FC000B221B0CF0E94CE21ADCFCD010E94191FEA
:103FD000C8010E944B1FA6CFCD010E94FF1EC80141
:103FE0000E942A1F9FCF0E94F51B0E9495159ACF11
:103FF0000E945A22898396CF0E945C2298278927A3
:1040000098279A8389838ECF6B8170E089819A810A
:10401000AE014C5F5F4F9827892798270E945F2247
:1040200081CF6B8170E089819A81AE014C5F5F4FD7
:104030009827892798270E94842274CF0E94A9225A
:1040400071CF0E947E21D6CF6B8170E089819A81E9
:10405000AE014C5F5F4F9827892798270E94062260
:1040600061CF6B8170E089819A81AE014C5F5F4FB7
:104070009827892798270E94292254CF8FEF888379
:1040800051CFCF93DF93EC01FB018281882309F4A8
:1040900033C1C330FDE5DF07C0F5CA3F9CE5D90752
:1040A00030F49E0122503C4524313105B0F50E9488
:1040B000A30D9093430280934202C1318CE5D8074F
:1040C00009F4EEC008F069C0C930ECE5DE0709F478
:1040D000D5C0C8F5C5308CE5D80709F4C7C000F5D0
:1040E000C330ECE5DE0709F4B9C008F0BBC0C2304C
:1040F000DC4509F4ADC080914202909143020E94D8
:10410000B10D0E945A0880E008C0C136EDE5DE0717
:1041100071F2C53AFDE5DF0751F2DF91CF910895C5
:10412000809142028062C7309CE5D90709F493C0B0
:10413000809142028061C830DC4508F48CC08091D7
:104140004202806488C0809142028B7FCD30FCE5C2
:10415000DF0709F480C098F4809142028E7FCB3053
:104160009CE5D90709F477C0809142028C60CC307D
:10417000DC4508F470C0809142028D7F6CC0809154
:1041800042028F7ECF30FCE5DF0709F464C008F4FB
:104190007BC0809142028F7D5EC0CD3F9CE5D907F8
:1041A00009F47AC050F5C531FCE5DF0709F486C093
:1041B00098F480914202837FC3319CE5D90709F4CA
:1041C0004AC008F471C00E945A0890914202892F97
:1041D00097FB87F980583FC0CB3FFCE5DF0709F428
:1041E00049C008F055C0809143028160CA3FDC4558
:1041F00009F081CF809343027ECFC130EDE5DE0729
:1042000009F468C0A8F4CF3F8CE5D80709F452C080
:10421000809143028360C115DD4560F380914302C4
:10422000982F909591708E7F892B90FB81F9E2CF2A
:10423000C136EDE5DE0709F451C0C53AFDE5DF07FB
:1042400009F453C0C230DD4509F055CF80E043C0CA
:10425000809142028160809342024DCF8091420260
:104260008260F9CF809142028460F5CF8091420252
:104270008860F1CF809143028260BCCF0E945A08CF
:10428000809142028068E7CF80914202877FE3CF2E
:10429000809143028E7FAECF809143028D7FAACF63
:1042A000809142028F7BD7CF0E945A0880914202B0
:1042B0008F77D1CF809143028C7F9CCF8091420237
:1042C00082FB992790F921E0922790FB82F990FBDD
:1042D00083F9C1CF81E00E943D0E0DCF9091420243
:1042E000892F8F7E94FF8061B6CF90914202892FF3
:1042F0008E7F90FF8160AFCF81E00FCF84E0089583
:1043000050E0440F551F96E0699F400D511D112448
:1043100092E1899F400D511D1124CA01879608958D
:104320000F931F93CF93DF938430C8F46330B8F4B6
:104330004330A8F40E9480218C010E948B2EC82F4C
:10434000D0E0DC2FCC27C80101960E948B2E9E0165
:10435000282BC901DF91CF911F910F91089590E013
:1043600080E0F8CF0F931F93CF93DF93122F032F8B
:10437000843078F4633068F4433058F40E9480212C
:10438000EC01602F0E949F2E612FCE0101960E94AA
:104390009F2EDF91CF911F910F910895AF92BF9201
:1043A000CF92DF92EF92FF921F93CF93DF938CEA2D
:1043B000C82E80E0D82ED0E07601C0E014C0F50110
:1043C00025913491412F6C2F8D2F0E94B22182E0D4
:1043D000A80EB11C1F5F133091F786E0E80EF11CA8
:1043E000CF5FC33019F0570110E0E9CFDF5F82E102
:1043F000C80ED11CD43001F7DF91CF911F91FF90EF
:10440000EF90DF90CF90BF90AF900895EF92FF9222
:104410000F931F93CF93DF93EC018A017C01E60E8B
:10442000F71ECE018796CE15DF0529F4CDB7DEB78E
:10443000E6E00C94562EC834D10540F40E948B2E31
:10444000F80180830F5F1F4F2196EBCFF801108298
:10445000F9CFB0E0A0E0EFE2F2E20C94382E7C015C
:104460006A018C01060F171FEC01CE018796C01759
:10447000D10729F4CDB7DEB7E8E00C94542EC83448
:10448000D10540F4FE01EE19FF09EC0DFD1D608120
:104490000E949F2E2196E9CF462F843040F473303E
:1044A00030F4633020F4672F0E949021089590E04B
:1044B00080E0089580E1089581E993E00895EF9206
:1044C000FF920F931F93CF93DF93EC018A017C013E
:1044D000E60EF71ECE0181599F4FCE15DF0529F458
:1044E000CDB7DEB7E6E00C94562EC13923E0D207F3
:1044F00040F40E948B2EF80180830F5F1F4F21969E
:10450000E9CFF8011082F9CFB0E0A0E0EAE8F2E2EA
:104510000C94382E7C016A018C01060F171FEC01E8
:10452000CE0181599F4FC017D10729F4CDB7DEB70F
:10453000E8E00C94542EC13923E0D20740F4FE0188
:10454000EE19FF09EC0DFD1D60810E949F2E219642
:10455000E7CFCF93DF93CFE6D0E060E0CE010E94BB
:104560009F2E2196C11584E0D807B9F7DF91CF912E
:104570000895A4E0B0E0EFEBF2E20C94392EF82EAF
:104580008FE08F1548F18FEF93E00E948B2E811101
:1045900023C00FE610E0F11023C019821A821B829B
:1045A0001C82DD24D39478018FEFE81AF80AC80141
:1045B0000E948B2E89831A82882371F09FEF980FB7
:1045C0009330D8F48A83D9820E5F1F4FC7010E94AF
:1045D0008B2E8B83811112C02496E7E00C94552E0C
:1045E000011584E01807C1F3C8010E948B2E8111C8
:1045F00001C0FA940F5F1F4FCECF8701CE01019605
:104600000E94D304D0CFCF93DF93EB0186319C453A
:1046100011F50E949F0C9A81992399F08A7A91E072
:1046200009F490E090931402811109C089E20E947C
:10463000770C0E94E00C80E0DF91CF91089585E334
:10464000F6CF80911402811104C089E20E947F0C90
:10465000F0CF85E3FBCF81E0EFCF0F931F93CF9394
:10466000DF93C42FD22FFC0182818823C9F04093AD
:1046700017020E94BF25909316028093150280E2D4
:104680008C0F883040F4C77081E001C0880FCA9554
:10469000EAF70E942A06DF91CF911F910F910895AA
:1046A00010911702141332C08091150290911602D6
:1046B0000E94D725883C910548F5C0E2CD0F1D1713
:1046C000B9F080E2810F883040F4177081E001C0BA
:1046D000880F1A95EAF70E943106C83048F481E045
:1046E0009D2F977001C0880F9A95EAF70E942A06BD
:1046F000802F0E942106C83070F6D77081E001C07B
:10470000880FDA95EAF70E943106C5CF80E28C0F58
:10471000883008F6C77081E001C0880FCA95EAF7B3
:10472000F2CF0F939C01CB01233F4CE5340759F1A5
:10473000A8F4283DFCE53F0701F1293D4CE534078D
:10474000D1F1273D3C4591F406E221EE41EE67EDC3
:104750007CE50E942D2380E00F910895253FFCE524
:104760003F07E9F0B0F0263F3C45F9F0FC018281BB
:10477000882339F110921702EFCF07E225EE45EEBC
:1047800068ED7CE5E6CF06E221EE40EE63EF7CE5E6
:10479000E0CF07E225EE44EE64EF7CE5DACF06E2F7
:1047A00021EE42EE65EF7CE5D4CF07E225EE46EE42
:1047B00066EF7CE5CECF08E221E045EE69ED7CE5D1
:1047C000C8CF81E0C9CF90936501809364010895BB
:1047D00090931D0280931C020895E0911C02F091B9
:1047E0001D02309729F00190F081E02D0995089580
:1047F00080E00895E0911C02F0911D02309799F03D
:1048000020912901222359F02091420227FF07C05D
:10481000DC012C9111962C93119726E02C930280A9
:10482000F381E02D09950895E0911C02F0911D029D
:10483000309739F022E0DC012C930480F581E02DE3
:104840000995089520911A0230911B022817390703
:1048500071F090931B0280931A02E0911C02F09178
:104860001D02309721F00680F781E02D099508950B
:1048700020911802309119022817390771F090938E
:10488000190280931802E0911C02F0911D023097EA
:1048900021F00084F185E02D09950895FC01329600
:1048A00080912901882321F0809142029EE187FFB7
:1048B00096E080E0915008F4089521912223D1F3ED
:1048C0008F5FF8CF662301F1209129012223F1F0B7
:1048D0002091420227FF1AC0462F469546954695DD
:1048E0004E3190F4677021E030E002C0220F331F98
:1048F0006A95E2F7840F911DFC01828190E02823E4
:10490000392381E0232B69F480E00895FC0132967D
:1049100008962191261721F0E817F907D1F7F4CF6F
:1049200081E008959C01FC0132969FEF80E0419167
:10493000461751F09F3F19F4411101C0982F8F5F26
:104940008630A9F79F3F09F40895290F311D97FD7F
:104950003A95F90162830895FC01329608962191F7
:10496000261303C0DF0111971C92E817F907B9F766
:104970000895E62FE695E695E695EE3168F4E80FA2
:10498000F92FF11D677021E030E001C0220F6A9518
:10499000EAF78281822B82830895E62FE695E695D9
:1049A000E695EE3170F4E80FF92FF11D677021E004
:1049B00030E001C0220F6A95EAF720958281282312
:1049C0002283089520912901222339F02091420267
:1049D00027FF03C00E94B92408950E9492240895DD
:1049E00020912901222339F02091420227FF03C0A0
:1049F0000E94CD2408950E94AC240895FC013296B3
:104A000080912901882351F08091420287FF06C0DE
:104A10008EE1DF011D928A95E9F7089586E0F9CFCE
:104A200046E050E00E947E2E21E0892B09F420E030
:104A3000822F089508950E941A250895811106C0B5
:104A400081E080931E020E941B25089582E0F9CF29
:104A500083E080931E020E941B2508950E941E255C
:104A6000089581E080931E020E941B2508950E94F4
:104A700031250895089508950E943B2508950895CD
:104A800008950E943A250895CF930E943F250E94E1
:104A9000B8110E944025C0E08C2F0E94091181119D
:104AA00005C0CF5FC330C1F7CF91089581E0FCCF3F
:104AB00085B7806885BF85B7806885BF08951F92D8
:104AC0001FB61F9211248F939F93AF93BF93809132
:104AD0001F02811113C08091680290916902A09118
:104AE0006A02B0916B024196A11DB11D80936802CC
:104AF00090936902A0936A02B0936B02BF91AF9149
:104B00009F918F911F901FBE1F90189580917002EA
:104B1000843031F10E94010410921F0288E190E07C
:104B200020E40FB6F894A895809360000FBE209300
:104B3000600083B7817F846083BF83B7816083BF58
:104B40007894889583B78E7F83BF0FB6F894A89525
:104B500080916000886180936000109260000FBEB9
:104B600008950E945A080E940904089582E084BDB5
:104B700093E095BD9AEF97BD80936E0008952FB78F
:104B8000F8948091680290916902A0916A02B091B4
:104B90006B022FBF08952FB7F8946091680270914F
:104BA000690280916A0290916B022FBF08959C0167
:104BB0004FB7F8948091680290916902A0916A02BF
:104BC000B0916B024FBF821B930B089578941F9294
:104BD0001FB61F9211248F939F93AF93BF93809121
:104BE000680290916902A0916A02B0916B020196ED
:104BF000A11DB11D8093680290936902A0936A027F
:104C0000B0936B02BF91AF919F918F911F901FBE88
:104C10001F90189581E08093E00080E28093D80097
:104C20001092C9008FE19EE40197F1F700C00000E7
:104C300087E090EBDC018093790290937A02A09355
:104C40007B02B0937C0288E19CE00FB6F894A895B3
:104C5000809360000FBE90936000FFCF88E19CE0DE
:104C60000FB6F894A895809360000FBE90936000F3
:104C7000FFCF809140020895089508959C0184E03B
:104C80008093E9009FEF8091E800915085FD06C078
:104C900085ED8A95F1F700009111F5CF8091E8003C
:104CA00085FF0CC050E040E066E070E0C9010E9462
:104CB000B2288091E8008E778093E8000895CF9322
:104CC000DF93EC01809129018823B1F180914202A8
:104CD00087FF32C060E284E08093E9008FEF90911B
:104CE000E800815095FD06C095ED9A95F1F700001A
:104CF0008111F5CF8091E80085FF1BC080912901CB
:104D000070E050E040E0811104C050E040E068E015
:104D100070E0CE010E94B2288091E8008E778093E7
:104D2000E80080E2FE01A0E2B2E001900D928A95D7
:104D3000E1F7DF91CF91089568E081E0CDCF08954C
:104D4000CF93FC01603221F580917002843001F52F
:104D5000C091E900CF702091EC00922F917020FD5E
:104D600090E8C92B82E08093E9008091E80080FF01
:104D70000CC050E040E060E270E0CF010E94B22839
:104D80008091E8008E778093E800CF70C093E900AF
:104D9000CF91089580916F02811109C00E94912ADC
:104DA0000E94EE2A8091E20084608093E2000895E0
:104DB00010926F0208950E943125089560916C024F
:104DC00081E0611101C080E00E9428250895909142
:104DD000700281E0943009F080E060916C020E94E2
:104DE0002E25089542E061EC81E00E940D2A42E206
:104DF00061EC84E00E940D2A42E261EC82E00E94B4
:104E00000D2A42E260EC83E00E940D2A909170022C
:104E100081E0943009F080E060916C020E941E25D0
:104E2000089580917202833009F463C030F48130B8
:104E3000E1F1823009F4A0C008958A3009F48CC0F1
:104E40008B3009F471C0893009F052C08091710231
:104E5000813209F04DC080917502909176020097E1
:104E600019F0029709F044C08091E800877F809391
:104E7000E8008091E80082FF37C09091F3008091B4
:104E8000F200029731F48091F100813011F0863008
:104E900021F48091F100809340028091E8008B77AB
:104EA0008093E8000E94412A23C080917102813AD8
:104EB000F9F48091E800877F8093E8008091750283
:104EC00090917602892B61F460E280E292E070E0DA
:104ED0000E9450298091E8008B778093E800089524
:104EE00060E090E080E0F3CF809170028111C1CF4B
:104EF000089580917102813AD9F78091750290915D
:104F00007602892BA9F78091E800877F8093E800DB
:104F10008091E80080FFFCCF809129018093F1000F
:104F20008091E8008E77BCCF80917102813201F7C9
:104F30008091750290917602892BD1F68091E800DC
:104F4000877F8093E8000E94412A809173028093BA
:104F500029010E945A08089580917102813241F618
:104F60008091E800877F8093E8000E94412A809129
:104F7000740280934102089580917102813A09F090
:104F8000B7CF8091E800877F8093E8008091E800A8
:104F900080FFFCCF80914102C1CF84B7877F84BF5F
:104FA0000FB6F894A89580916000886180936000A6
:104FB000109260000FBE80E890E00FB6F8948093E6
:104FC0006100909361000FBE0E94372508950E94F2
:104FD000912A0E94EE2AE2EEF0E0808184608083D4
:104FE00078940E946D2D08958DE191E00E94E82350
:104FF000089580917002853031F48091700285307F
:1050000019F00E94B12508950E94862580916E02B4
:10501000882399F30E944425882379F30E949C28D1
:105020000E945A08EACFA0E2B0E0E9E1F8E20C946D
:105030003E2E80917002843009F583E08093E90070
:105040008091E80082FF1AC08091E80090E085FF1F
:1050500009C050E040E060E270E0CE0101960E949D
:10506000012991E08091E8008B778093E8009923F3
:1050700029F060E2CE0101960E947C1FA096E2E03A
:105080000C945A2E0E9445280895292F3327233047
:10509000310521F168F42130310509F443C0223093
:1050A000310509F444C090E080E030E020E026C003
:1050B0002132310551F122323105A9F763307105F2
:1050C00090F7FB01EE0FFF1FE85AFE4F2081318160
:1050D0006B5A7E4FFB01808190E010C09927813090
:1050E000910581F0009729F00297E9F6E5E1F4E0F7
:1050F00002C0EDE3F4E0849190E09F01FA01318376
:1051000020830895E7E2F4E0F6CF6330710558F6A6
:10511000660F771FFB01E25AFE4F2081318189E043
:1051200090E0ECCF82E190E02CE934E0E7CF8BE532
:1051300090E021E434E0E2CF80E189BD82E189BDE5
:1051400009B400FEFDCF8091D8008F7D8093D800F8
:105150008091E00082608093E0008091E00081FD1A
:10516000FCCF0895AF92BF92CF92DF92FF920F9340
:105170001F93CF93DF936C01EB018A010E94602A99
:10518000F82E811123C00115110539F0F801808135
:105190009181C81BD90BC80ED91EB12CA12C209708
:1051A000A9F08091E80085FD22C08091E8008E770B
:1051B0008093E80001151105A1F0F801808191812B
:1051C000A80EB91EB182A08285E0F82E8F2DDF9146
:1051D000CF911F910F91FF90DF90CF90BF90AF9034
:1051E00008950E94602A8823D1F2F82EEFCFF601AD
:1051F00081916F018093F1002197FFEFAF1ABF0AF1
:10520000CECFAF92BF92CF92DF92FF920F931F93B8
:10521000CF93DF936C01EB018A010E94602AF82E84
:10522000811123C00115110539F0F80180819181A8
:10523000C81BD90BC80ED91EB12CA12C2097A9F0E0
:105240008091E80085FD22C08091E8008B778093F3
:10525000E80001151105A1F0F80180819181A80EE7
:10526000B91EB182A08285E0F82E8F2DDF91CF91FB
:105270001F910F91FF90DF90CF90BF90AF90089556
:105280000E94602A8823D1F2F82EEFCF8091F1009E
:10529000F60181936F012197FFEFAF1ABF0ACECFBE
:1052A000FC01809177029091780286179707A0F011
:1052B0006115710529F49091E8009E779093E800BC
:1052C00090E06115710551F4911108C08091E800DA
:1052D00082FF34C080E00895BC01F2CF809170025B
:1052E0008823C1F18530C1F18091E80083FD30C091
:1052F0008091E80082FDEACF8091E80080FFE1CF55
:105300008091F3002091F200382F6115710519F09A
:105310002830310558F091E02830310509F090E04F
:105320002091E8002E772093E800CBCF81918093E5
:10533000F100615071092F5F3F4FE7CF80917002FC
:10534000882341F0853041F08091E80083FFBECF93
:1053500081E0089582E0089583E00895FC01809142
:1053600077029091780286179707A0F06115710572
:1053700029F48091E8008E778093E80090E0611531
:10538000710551F4911108C08091E80082FF35C089
:1053900080E00895BC01F2CF809170028823C9F1AA
:1053A0008530C9F18091E80083FD31C08091E8002B
:1053B00082FDEACF8091E80080FFE1CF8091F30089
:1053C0002091F200382F6115710519F02830310550
:1053D00058F091E02830310509F090E08091E80024
:1053E0008E778093E800CBCF84918093F100319643
:1053F000615071092F5F3F4FE6CF80917002882383
:1054000041F0853041F08091E80083FFBDCF81E01D
:10541000089582E0089583E00895982F973028F04A
:105420008F708093E90081E008959093E900242F24
:10543000762F50E0981731F07091EC002091ED003C
:105440005091F00021FD02C09F5FE8CF3091EB004A
:105450003E7F3093EB003091ED003D7F3093ED00C7
:105460003091EB0031603093EB007093EC002093AF
:10547000ED005093F0002091EE0027FDE5CF80E095
:1054800008958091710287FF13C08091E80082FF28
:1054900006C08091E8008B778093E80004C080917B
:1054A00070028111F2CF0895809170028823D9F3A0
:1054B0008091E80080FFF8CF8091E8008E77ECCFF4
:1054C0002091E4003091E50095E6A9012091EC00DF
:1054D000822F817020FF06C08091E80080FF06C007
:1054E00080E008952091E80022FD1AC080917002AA
:1054F000882389F0853089F08091EB0085FD0FC00D
:105500002091E4003091E50042175307F9F29150E1
:10551000E1F684E0089582E0089583E0089581E053
:1055200008950E94002B0E94082BE0EEF0E080819D
:1055300081608083E8EDF0E080818F77808319BC03
:10554000A7EDB0E08C918E7F8C9380818F7E8083DD
:1055500010926F0208950F931F93CF93DF930E94D1
:10556000002B0E94082BC8EDD0E088818F778883BC
:1055700088818068888388818F7D888319BC109298
:10558000700210926C0210926E0210926D0200EE88
:1055900010E0F80180818B7F80838881816088831F
:1055A00042E060E080E00E940D2AE1EEF0E08081C0
:1055B0008E7F8083E2EEF0E0808181608083808155
:1055C00088608083F80180818E7F808388818061FC
:1055D0008883DF91CF911F910F910895E8EDF0E05E
:1055E00080818F7E8083E7EDF0E080818160808321
:1055F00084E082BF81E080936F020E94AB2A08950D
:10560000E8EDF0E080818E7F80831092E2000895C3
:105610001092DA001092E10008951F920F920FB6D7
:105620000F9211242F933F934F935F936F937F9328
:105630008F939F93AF93BF93EF93FF938091E1007C
:1056400082FF0BC08091E20082FF07C08091E100E1
:105650008B7F8093E1000E946C2D8091DA0080FFA7
:1056600019C08091D80080FF15C08091DA008E7F2C
:105670008093DA008091D90080FF96C080E189BDD7
:1056800082E189BD09B400FEFDCF81E08093700204
:105690000E94CA268091E10080FF19C08091E2003B
:1056A00080FF15C08091E2008E7F8093E2008091A0
:1056B000E20080618093E2008091D8008062809354
:1056C000D80019BC85E0809370020E94DE2680918C
:1056D000E10084FF2BC08091E20084FF27C080E1BD
:1056E00089BD82E189BD89B5982F917080FFFBCF7C
:1056F0008091D8008F7D8093D8008091E1008F7ECB
:105700008093E1008091E2008F7E8093E20080919F
:10571000E20081608093E20080916C02882309F4AA
:1057200049C084E0809370020E94E7268091E100E6
:1057300083FF29C08091E20083FF25C08091E100B2
:10574000877F8093E10082E08093700210926C0268
:105750008091E1008E7F8093E1008091E2008E7F56
:105760008093E2008091E20080618093E20042E059
:1057700060E080E00E940D2A8091F00088608093B4
:10578000F0000E94DB26FF91EF91BF91AF919F91B6
:105790008F917F916F915F914F913F912F910F90DA
:1057A0000FBE0F901F90189519BC109270020E94A6
:1057B000D82670CF8091E30087FD93E0909370022C
:1057C000B3CF1F920F920FB60F9211242F933F93D6
:1057D0004F935F936F937F938F939F93AF93BF93F9
:1057E000CF93DF93EF93FF93D091E900DF70809127
:1057F000EC00C82FC17080FDC0E81092E9008091D4
:10580000F000877F8093F00078940E94252C1092FE
:10581000E9008091F00088608093F000CD2BCF707C
:10582000C093E900FF91EF91DF91CF91BF91AF91CC
:105830009F918F917F916F915F914F913F912F91A8
:105840000F900FBE0F901F901895AAE2B0E0EBE208
:10585000FCE20C943D2E81E792E02091F100FC01E6
:105860002193CF01F2E089379F07B9F70E941127F2
:105870008091E80083FF1EC18091710290917202B5
:105880009A3008F017C1E92FF0E0EC50F14D0C947C
:10589000F02D803899F0823809F00CC180917502A2
:1058A0008F70873008F006C18093E9008091EB008B
:1058B00085FB882780F91092E90006C080916D026F
:1058C00090916E02911182609091E800977F909381
:1058D000E8008093F1001092F1008091E8008E774B
:1058E000E5C0882309F4D3C0823009F0E3C0809179
:1058F00073028111D6C0809175028F702FEF280F2F
:10590000263008F0D7C08093E9002091EB0020FFFB
:10591000C8C0933031F48091EB0080628093EB003B
:10592000C0C09091EB0090619093EB0021E030E0DB
:1059300001C0220F8A95EAF72093EA001092EA004C
:105940008091EB008860EACF8111B4C0109173029E
:105950001F778091E3008078812B8093E300809112
:10596000E800877F8093E8000E94412A8091E80048
:1059700080FFFCCF8091E30080688093E30082E0A9
:10598000111183E08093700295C08058823008F036
:1059900091C080917302909174028C3D23E0920734
:1059A000A1F583E08A838AE289834FB7F894DE0108
:1059B000139620E03EE051E2E32FF0E050935700D1
:1059C000E49120FF03C0E295EF703F5FEF708E2FF0
:1059D00090E0EA30C0F0C7968D939D932F5F2431FD
:1059E00059F74FBF8091E800877F8093E8006AE213
:1059F00070E0CE0101960E9450298091E8008B77DB
:105A00008093E80057C0C096E7CF6091750270910F
:105A10007602AE014F5F5F4F0E944228BC01892B86
:105A200009F448C09091E800977F9093E80089813D
:105A30009A810E94AE29E1CF8038E1F58091E8009B
:105A4000877F8093E80080916C028093F10045CFBE
:105A5000811130C090917302923060F58091E8001E
:105A6000877F8093E80090936C020E94412A809186
:105A70006C02882311F084E005C08091E30087FD6B
:105A8000FACF81E0809370020E94F22613C08091C9
:105A90007302813079F481E0933009F080E08093E3
:105AA0006E021092E9008091E800877F8093E80001
:105AB0000E94412A8091E80083FF0AC08091E8009B
:105AC000877F8093E8008091EB0080628093EB00F9
:105AD000AA96E3E00C94592E0895CF93809170021A
